{
  "contractName": "Order",
  "abi": [
    {
      "inputs": [
        {
          "internalType": "address",
          "name": "",
          "type": "address"
        }
      ],
      "name": "orders",
      "outputs": [
        {
          "internalType": "address",
          "name": "customer",
          "type": "address"
        },
        {
          "internalType": "contract Product",
          "name": "product",
          "type": "address"
        },
        {
          "internalType": "string",
          "name": "paymentMethod",
          "type": "string"
        },
        {
          "internalType": "bool",
          "name": "fulfilled",
          "type": "bool"
        }
      ],
      "stateMutability": "view",
      "type": "function",
      "constant": true
    },
    {
      "inputs": [
        {
          "internalType": "address",
          "name": "_customer",
          "type": "address"
        },
        {
          "internalType": "contract Product",
          "name": "_product",
          "type": "address"
        },
        {
          "internalType": "string",
          "name": "_paymentMethod",
          "type": "string"
        },
        {
          "internalType": "bool",
          "name": "_fulfilled",
          "type": "bool"
        }
      ],
      "name": "recordOrder",
      "outputs": [],
      "stateMutability": "nonpayable",
      "type": "function"
    },
    {
      "inputs": [],
      "name": "getOrder",
      "outputs": [
        {
          "internalType": "address",
          "name": "",
          "type": "address"
        },
        {
          "internalType": "contract Product",
          "name": "",
          "type": "address"
        },
        {
          "internalType": "string",
          "name": "",
          "type": "string"
        },
        {
          "internalType": "bool",
          "name": "",
          "type": "bool"
        }
      ],
      "stateMutability": "view",
      "type": "function",
      "constant": true
    }
  ],
  "bytecode": "0x608060405234801561001057600080fd5b50610b92806100206000396000f3fe608060405234801561001057600080fd5b50600436106100415760003560e01c806367e822e014610046578063d36dedd214610062578063f40e847114610083575b600080fd5b610060600480360381019061005b9190610686565b6100b6565b005b61006a610210565b60405161007a9493929190610805565b60405180910390f35b61009d60048036038101906100989190610851565b610353565b6040516100ad9493929190610805565b60405180910390f35b60405180608001604052808573ffffffffffffffffffffffffffffffffffffffff1681526020018473ffffffffffffffffffffffffffffffffffffffff1681526020018381526020018215158152506000803073ffffffffffffffffffffffffffffffffffffffff1673ffffffffffffffffffffffffffffffffffffffff16815260200190815260200160002060008201518160000160006101000a81548173ffffffffffffffffffffffffffffffffffffffff021916908373ffffffffffffffffffffffffffffffffffffffff16021790555060208201518160010160006101000a81548173ffffffffffffffffffffffffffffffffffffffff021916908373ffffffffffffffffffffffffffffffffffffffff16021790555060408201518160020190816101e69190610a8a565b5060608201518160030160006101000a81548160ff02191690831515021790555090505050505050565b60008060606000806000803073ffffffffffffffffffffffffffffffffffffffff1673ffffffffffffffffffffffffffffffffffffffff16815260200190815260200160002090508060000160009054906101000a900473ffffffffffffffffffffffffffffffffffffffff168160010160009054906101000a900473ffffffffffffffffffffffffffffffffffffffff16826002018360030160009054906101000a900460ff168180546102c4906108ad565b80601f01602080910402602001604051908101604052809291908181526020018280546102f0906108ad565b801561033d5780601f106103125761010080835404028352916020019161033d565b820191906000526020600020905b81548152906001019060200180831161032057829003601f168201915b5050505050915094509450945094505090919293565b60006020528060005260406000206000915090508060000160009054906101000a900473ffffffffffffffffffffffffffffffffffffffff16908060010160009054906101000a900473ffffffffffffffffffffffffffffffffffffffff16908060020180546103c2906108ad565b80601f01602080910402602001604051908101604052809291908181526020018280546103ee906108ad565b801561043b5780601f106104105761010080835404028352916020019161043b565b820191906000526020600020905b81548152906001019060200180831161041e57829003601f168201915b5050505050908060030160009054906101000a900460ff16905084565b6000604051905090565b600080fd5b600080fd5b600073ffffffffffffffffffffffffffffffffffffffff82169050919050565b60006104978261046c565b9050919050565b6104a78161048c565b81146104b257600080fd5b50565b6000813590506104c48161049e565b92915050565b60006104d58261048c565b9050919050565b6104e5816104ca565b81146104f057600080fd5b50565b600081359050610502816104dc565b92915050565b600080fd5b600080fd5b6000601f19601f8301169050919050565b7f4e487b7100000000000000000000000000000000000000000000000000000000600052604160045260246000fd5b61055b82610512565b810181811067ffffffffffffffff8211171561057a57610579610523565b5b80604052505050565b600061058d610458565b90506105998282610552565b919050565b600067ffffffffffffffff8211156105b9576105b8610523565b5b6105c282610512565b9050602081019050919050565b82818337600083830152505050565b60006105f16105ec8461059e565b610583565b90508281526020810184848401111561060d5761060c61050d565b5b6106188482856105cf565b509392505050565b600082601f83011261063557610634610508565b5b81356106458482602086016105de565b91505092915050565b60008115159050919050565b6106638161064e565b811461066e57600080fd5b50565b6000813590506106808161065a565b92915050565b600080600080608085870312156106a05761069f610462565b5b60006106ae878288016104b5565b94505060206106bf878288016104f3565b935050604085013567ffffffffffffffff8111156106e0576106df610467565b5b6106ec87828801610620565b92505060606106fd87828801610671565b91505092959194509250565b6107128161048c565b82525050565b6000819050919050565b600061073d6107386107338461046c565b610718565b61046c565b9050919050565b600061074f82610722565b9050919050565b600061076182610744565b9050919050565b61077181610756565b82525050565b600081519050919050565b600082825260208201905092915050565b60005b838110156107b1578082015181840152602081019050610796565b60008484015250505050565b60006107c882610777565b6107d28185610782565b93506107e2818560208601610793565b6107eb81610512565b840191505092915050565b6107ff8161064e565b82525050565b600060808201905061081a6000830187610709565b6108276020830186610768565b818103604083015261083981856107bd565b905061084860608301846107f6565b95945050505050565b60006020828403121561086757610866610462565b5b6000610875848285016104b5565b91505092915050565b7f4e487b7100000000000000000000000000000000000000000000000000000000600052602260045260246000fd5b600060028204905060018216806108c557607f821691505b6020821081036108d8576108d761087e565b5b50919050565b60008190508160005260206000209050919050565b60006020601f8301049050919050565b600082821b905092915050565b6000600883026109407fffffffffffffffffffffffffffffffffffffffffffffffffffffffffffffffff82610903565b61094a8683610903565b95508019841693508086168417925050509392505050565b6000819050919050565b600061098761098261097d84610962565b610718565b610962565b9050919050565b6000819050919050565b6109a18361096c565b6109b56109ad8261098e565b848454610910565b825550505050565b600090565b6109ca6109bd565b6109d5818484610998565b505050565b5b818110156109f9576109ee6000826109c2565b6001810190506109db565b5050565b601f821115610a3e57610a0f816108de565b610a18846108f3565b81016020851015610a27578190505b610a3b610a33856108f3565b8301826109da565b50505b505050565b600082821c905092915050565b6000610a6160001984600802610a43565b1980831691505092915050565b6000610a7a8383610a50565b9150826002028217905092915050565b610a9382610777565b67ffffffffffffffff811115610aac57610aab610523565b5b610ab682546108ad565b610ac18282856109fd565b600060209050601f831160018114610af45760008415610ae2578287015190505b610aec8582610a6e565b865550610b54565b601f198416610b02866108de565b60005b82811015610b2a57848901518255600182019150602085019450602081019050610b05565b86831015610b475784890151610b43601f891682610a50565b8355505b6001600288020188555050505b50505050505056fea2646970667358221220d68e2f29ee86ce97f77f0bad6096ac35585d93bdd0e37783a1f2d1d6c39f103b64736f6c63430008130033",
  "immutableReferences": {},
  "source": "// SPDX-License-Identifier: MIT\r\npragma solidity >=0.8.2 <0.9.0;\r\nimport \"./Product.sol\";\r\n\r\ncontract Order {\r\n        \r\n    struct OrderInfo{\r\n        address customer;\r\n        Product product;\r\n        string paymentMethod;\r\n        bool fulfilled;\r\n    }\r\n    \r\n    mapping (address => OrderInfo) public orders;\r\n    \r\n    function recordOrder(address _customer, Product _product, string  memory _paymentMethod, bool _fulfilled) public {\r\n        orders[address(this)] = OrderInfo(_customer, _product, _paymentMethod, _fulfilled);\r\n    }\r\n    \r\n    function getOrder() public view returns (address, Product, string memory, bool) {\r\n        OrderInfo storage order = orders[address(this)];\r\n        return (order.customer, order.product, order.paymentMethod, order.fulfilled);\r\n    }\r\n\r\n}\r\n",
  "sourcePath": "C:\\Users\\Almina\\Desktop\\Diplomski\\smart_contracts\\contracts\\Order.sol",
  "compiler": {
    "name": "solc",
    "version": "0.8.19+commit.7dd6d404.Emscripten.clang"
  },
  "schemaVersion": "3.4.13",
  "updatedAt": "2023-03-28T21:57:34.326Z",
  "networkType": "ethereum",
  "devdoc": {
    "kind": "dev",
    "methods": {},
    "version": 1
  },
  "userdoc": {
    "kind": "user",
    "methods": {},
    "version": 1
  }
}