{
  "contractName": "Payment",
  "abi": [
    {
      "inputs": [
        {
          "internalType": "address payable",
          "name": "_seller",
          "type": "address"
        },
        {
          "internalType": "address payable",
          "name": "_buyer",
          "type": "address"
        },
        {
          "internalType": "uint256",
          "name": "_amount",
          "type": "uint256"
        }
      ],
      "stateMutability": "nonpayable",
      "type": "constructor"
    },
    {
      "inputs": [],
      "name": "amount",
      "outputs": [
        {
          "internalType": "uint256",
          "name": "",
          "type": "uint256"
        }
      ],
      "stateMutability": "view",
      "type": "function"
    },
    {
      "inputs": [],
      "name": "buyer",
      "outputs": [
        {
          "internalType": "address payable",
          "name": "",
          "type": "address"
        }
      ],
      "stateMutability": "view",
      "type": "function"
    },
    {
      "inputs": [],
      "name": "paid",
      "outputs": [
        {
          "internalType": "bool",
          "name": "",
          "type": "bool"
        }
      ],
      "stateMutability": "view",
      "type": "function"
    },
    {
      "inputs": [],
      "name": "seller",
      "outputs": [
        {
          "internalType": "address payable",
          "name": "",
          "type": "address"
        }
      ],
      "stateMutability": "view",
      "type": "function"
    },
    {
      "inputs": [],
      "name": "makePayment",
      "outputs": [],
      "stateMutability": "payable",
      "type": "function"
    },
    {
      "inputs": [],
      "name": "refundPayment",
      "outputs": [],
      "stateMutability": "nonpayable",
      "type": "function"
    },
    {
      "inputs": [],
      "name": "getBalance",
      "outputs": [
        {
          "internalType": "uint256",
          "name": "",
          "type": "uint256"
        }
      ],
      "stateMutability": "view",
      "type": "function"
    }
  ],
  "bytecode": "0x608060405234801561001057600080fd5b50604051610a1d380380610a1d8339818101604052810190610032919061015b565b826000806101000a81548173ffffffffffffffffffffffffffffffffffffffff021916908373ffffffffffffffffffffffffffffffffffffffff16021790555081600160006101000a81548173ffffffffffffffffffffffffffffffffffffffff021916908373ffffffffffffffffffffffffffffffffffffffff160217905550806002819055505050506101ae565b600080fd5b600073ffffffffffffffffffffffffffffffffffffffff82169050919050565b60006100f2826100c7565b9050919050565b610102816100e7565b811461010d57600080fd5b50565b60008151905061011f816100f9565b92915050565b6000819050919050565b61013881610125565b811461014357600080fd5b50565b6000815190506101558161012f565b92915050565b600080600060608486031215610174576101736100c2565b5b600061018286828701610110565b935050602061019386828701610110565b92505060406101a486828701610146565b9150509250925092565b610860806101bd6000396000f3fe6080604052600436106100705760003560e01c80637150d8ae1161004e5780637150d8ae146100f6578063aa8c217c14610121578063b65412b51461014c578063d8d797001461016357610070565b806308551a531461007557806312065fe0146100a0578063295b4e17146100cb575b600080fd5b34801561008157600080fd5b5061008a61016d565b6040516100979190610506565b60405180910390f35b3480156100ac57600080fd5b506100b5610191565b6040516100c2919061053a565b60405180910390f35b3480156100d757600080fd5b506100e0610199565b6040516100ed9190610570565b60405180910390f35b34801561010257600080fd5b5061010b6101ac565b6040516101189190610506565b60405180910390f35b34801561012d57600080fd5b506101366101d2565b604051610143919061053a565b60405180910390f35b34801561015857600080fd5b506101616101d8565b005b61016b61031b565b005b60008054906101000a900473ffffffffffffffffffffffffffffffffffffffff1681565b600047905090565b600360009054906101000a900460ff1681565b600160009054906101000a900473ffffffffffffffffffffffffffffffffffffffff1681565b60025481565b60008054906101000a900473ffffffffffffffffffffffffffffffffffffffff1673ffffffffffffffffffffffffffffffffffffffff163373ffffffffffffffffffffffffffffffffffffffff1614610266576040517f08c379a000000000000000000000000000000000000000000000000000000000815260040161025d9061060e565b60405180910390fd5b600360009054906101000a900460ff166102b5576040517f08c379a00000000000000000000000000000000000000000000000000000000081526004016102ac9061067a565b60405180910390fd5b3373ffffffffffffffffffffffffffffffffffffffff166108fc6002549081150290604051600060405180830381858888f193505050501580156102fd573d6000803e3d6000fd5b506000600360006101000a81548160ff021916908315150217905550565b600160009054906101000a900473ffffffffffffffffffffffffffffffffffffffff1673ffffffffffffffffffffffffffffffffffffffff163373ffffffffffffffffffffffffffffffffffffffff16146103ab576040517f08c379a00000000000000000000000000000000000000000000000000000000081526004016103a29061070c565b60405180910390fd5b60025434146103ef576040517f08c379a00000000000000000000000000000000000000000000000000000000081526004016103e69061079e565b60405180910390fd5b600360009054906101000a900460ff161561043f576040517f08c379a00000000000000000000000000000000000000000000000000000000081526004016104369061080a565b60405180910390fd5b60008054906101000a900473ffffffffffffffffffffffffffffffffffffffff1673ffffffffffffffffffffffffffffffffffffffff166108fc6002549081150290604051600060405180830381858888f193505050501580156104a7573d6000803e3d6000fd5b506001600360006101000a81548160ff021916908315150217905550565b600073ffffffffffffffffffffffffffffffffffffffff82169050919050565b60006104f0826104c5565b9050919050565b610500816104e5565b82525050565b600060208201905061051b60008301846104f7565b92915050565b6000819050919050565b61053481610521565b82525050565b600060208201905061054f600083018461052b565b92915050565b60008115159050919050565b61056a81610555565b82525050565b60006020820190506105856000830184610561565b92915050565b600082825260208201905092915050565b7f4f6e6c792073656c6c65722063616e2063616c6c20746869732066756e63746960008201527f6f6e000000000000000000000000000000000000000000000000000000000000602082015250565b60006105f860228361058b565b91506106038261059c565b604082019050919050565b60006020820190508181036000830152610627816105eb565b9050919050565b7f5061796d656e7420686173206e6f74206265656e206d61646520796574000000600082015250565b6000610664601d8361058b565b915061066f8261062e565b602082019050919050565b6000602082019050818103600083015261069381610657565b9050919050565b7f4f6e6c792062757965722063616e2063616c6c20746869732066756e6374696f60008201527f6e00000000000000000000000000000000000000000000000000000000000000602082015250565b60006106f660218361058b565b91506107018261069a565b604082019050919050565b60006020820190508181036000830152610725816106e9565b9050919050565b7f5061796d656e7420616d6f756e742073686f756c6420626520657175616c207460008201527f6f20746865206f7264657220616d6f756e740000000000000000000000000000602082015250565b600061078860328361058b565b91506107938261072c565b604082019050919050565b600060208201905081810360008301526107b78161077b565b9050919050565b7f5061796d656e742068617320616c7265616479206265656e206d616465000000600082015250565b60006107f4601d8361058b565b91506107ff826107be565b602082019050919050565b60006020820190508181036000830152610823816107e7565b905091905056fea264697066735822122060ca8624b9f13c78310e9b8dedec8eb2e24ecfc35158492b10582b70e631f95c64736f6c63430008130033",
  "immutableReferences": {},
  "source": "// SPDX-License-Identifier: MIT\r\npragma solidity >=0.8.2 <0.9.0;\r\n\r\ncontract Payment {\r\n    address payable public seller;\r\n    address payable public buyer;\r\n    uint public amount;\r\n    bool public paid;\r\n\r\n    constructor(address payable _seller, address payable _buyer, uint _amount) {\r\n        seller = _seller;\r\n        buyer = _buyer;\r\n        amount = _amount;\r\n    }\r\n\r\n    function makePayment() public payable {\r\n        require(msg.sender == buyer, \"Only buyer can call this function\");\r\n        require(msg.value == amount, \"Payment amount should be equal to the order amount\");\r\n        require(!paid, \"Payment has already been made\");\r\n\r\n        seller.transfer(amount);\r\n        paid = true;\r\n    }\r\n\r\n    function refundPayment() public {\r\n        require(msg.sender == seller, \"Only seller can call this function\");\r\n        require(paid, \"Payment has not been made yet\");\r\n\r\n        payable(msg.sender).transfer(amount);\r\n        paid = false;\r\n    }\r\n\r\n    function getBalance() public view returns (uint) {\r\n        return address(this).balance;\r\n    }\r\n}\r\n",
  "sourcePath": "C:\\Users\\Almina\\Desktop\\Diplomski\\smart_contracts\\contracts\\Payment.sol",
  "compiler": {
    "name": "solc",
    "version": "0.8.19+commit.7dd6d404.Emscripten.clang"
  },
  "schemaVersion": "3.4.13",
  "updatedAt": "2023-03-28T21:57:31.344Z",
  "devdoc": {
    "kind": "dev",
    "methods": {},
    "version": 1
  },
  "userdoc": {
    "kind": "user",
    "methods": {},
    "version": 1
  }
}