{
  "contractName": "Product",
  "abi": [
    {
      "inputs": [],
      "stateMutability": "nonpayable",
      "type": "constructor"
    },
    {
      "inputs": [],
      "name": "owner",
      "outputs": [
        {
          "internalType": "address",
          "name": "",
          "type": "address"
        }
      ],
      "stateMutability": "view",
      "type": "function",
      "constant": true
    },
    {
      "inputs": [
        {
          "internalType": "address",
          "name": "",
          "type": "address"
        }
      ],
      "name": "products",
      "outputs": [
        {
          "internalType": "string",
          "name": "name",
          "type": "string"
        },
        {
          "internalType": "string",
          "name": "description",
          "type": "string"
        },
        {
          "internalType": "uint256",
          "name": "price",
          "type": "uint256"
        },
        {
          "internalType": "uint256",
          "name": "quantity",
          "type": "uint256"
        }
      ],
      "stateMutability": "view",
      "type": "function",
      "constant": true
    },
    {
      "inputs": [
        {
          "internalType": "string",
          "name": "name",
          "type": "string"
        },
        {
          "internalType": "string",
          "name": "description",
          "type": "string"
        },
        {
          "internalType": "uint256",
          "name": "price",
          "type": "uint256"
        },
        {
          "internalType": "uint256",
          "name": "quantity",
          "type": "uint256"
        }
      ],
      "name": "addProduct",
      "outputs": [],
      "stateMutability": "nonpayable",
      "type": "function"
    },
    {
      "inputs": [],
      "name": "getProduct",
      "outputs": [
        {
          "internalType": "string",
          "name": "",
          "type": "string"
        },
        {
          "internalType": "string",
          "name": "",
          "type": "string"
        },
        {
          "internalType": "uint256",
          "name": "",
          "type": "uint256"
        },
        {
          "internalType": "uint256",
          "name": "",
          "type": "uint256"
        }
      ],
      "stateMutability": "view",
      "type": "function",
      "constant": true
    },
    {
      "inputs": [
        {
          "internalType": "uint256",
          "name": "amountInEth",
          "type": "uint256"
        }
      ],
      "name": "convertToWei",
      "outputs": [
        {
          "internalType": "uint256",
          "name": "",
          "type": "uint256"
        }
      ],
      "stateMutability": "pure",
      "type": "function",
      "constant": true
    },
    {
      "inputs": [
        {
          "internalType": "uint256",
          "name": "amount",
          "type": "uint256"
        }
      ],
      "name": "restock",
      "outputs": [],
      "stateMutability": "nonpayable",
      "type": "function"
    },
    {
      "inputs": [
        {
          "internalType": "uint256",
          "name": "amount",
          "type": "uint256"
        }
      ],
      "name": "purchase",
      "outputs": [],
      "stateMutability": "payable",
      "type": "function",
      "payable": true
    }
  ],
  "bytecode": "0x60806040523480156200001157600080fd5b5033600160006101000a81548173ffffffffffffffffffffffffffffffffffffffff021916908373ffffffffffffffffffffffffffffffffffffffff16021790555060405180608001604052806040518060400160405280600781526020017f50726f647563740000000000000000000000000000000000000000000000000081525081526020016040518060400160405280600e81526020017f4e6f206465736372697074696f6e00000000000000000000000000000000000081525081526020016000815260200160008152506000803073ffffffffffffffffffffffffffffffffffffffff1673ffffffffffffffffffffffffffffffffffffffff1681526020019081526020016000206000820151816000019081620001359190620003e5565b5060208201518160010190816200014d9190620003e5565b506040820151816002015560608201518160030155905050620004cc565b600081519050919050565b7f4e487b7100000000000000000000000000000000000000000000000000000000600052604160045260246000fd5b7f4e487b7100000000000000000000000000000000000000000000000000000000600052602260045260246000fd5b60006002820490506001821680620001ed57607f821691505b602082108103620002035762000202620001a5565b5b50919050565b60008190508160005260206000209050919050565b60006020601f8301049050919050565b600082821b905092915050565b6000600883026200026d7fffffffffffffffffffffffffffffffffffffffffffffffffffffffffffffffff826200022e565b6200027986836200022e565b95508019841693508086168417925050509392505050565b6000819050919050565b6000819050919050565b6000620002c6620002c0620002ba8462000291565b6200029b565b62000291565b9050919050565b6000819050919050565b620002e283620002a5565b620002fa620002f182620002cd565b8484546200023b565b825550505050565b600090565b6200031162000302565b6200031e818484620002d7565b505050565b5b8181101562000346576200033a60008262000307565b60018101905062000324565b5050565b601f82111562000395576200035f8162000209565b6200036a846200021e565b810160208510156200037a578190505b6200039262000389856200021e565b83018262000323565b50505b505050565b600082821c905092915050565b6000620003ba600019846008026200039a565b1980831691505092915050565b6000620003d58383620003a7565b9150826002028217905092915050565b620003f0826200016b565b67ffffffffffffffff8111156200040c576200040b62000176565b5b620004188254620001d4565b620004258282856200034a565b600060209050601f8311600181146200045d576000841562000448578287015190505b620004548582620003c7565b865550620004c4565b601f1984166200046d8662000209565b60005b82811015620004975784890151825560018201915060208501945060208101905062000470565b86831015620004b75784890151620004b3601f891682620003a7565b8355505b6001600288020188555050505b505050505050565b61164380620004dc6000396000f3fe6080604052600436106100705760003560e01c80638da5cb5b1161004e5780638da5cb5b1461010c578063a60dc38a14610137578063c21a702a14610174578063efef39a11461019d57610070565b806301cecd14146100755780634ba200501461009e578063793a8e71146100cc575b600080fd5b34801561008157600080fd5b5061009c60048036038101906100979190610ba4565b6101b9565b005b3480156100aa57600080fd5b506100b3610377565b6040516100c39493929190610cd1565b60405180910390f35b3480156100d857600080fd5b506100f360048036038101906100ee9190610d82565b6104f8565b6040516101039493929190610cd1565b60405180910390f35b34801561011857600080fd5b50610121610638565b60405161012e9190610dbe565b60405180910390f35b34801561014357600080fd5b5061015e60048036038101906101599190610dd9565b61065e565b60405161016b9190610e06565b60405180910390f35b34801561018057600080fd5b5061019b60048036038101906101969190610dd9565b61067a565b005b6101b760048036038101906101b29190610dd9565b6107a8565b005b600160009054906101000a900473ffffffffffffffffffffffffffffffffffffffff1673ffffffffffffffffffffffffffffffffffffffff163373ffffffffffffffffffffffffffffffffffffffff1614610249576040517f08c379a000000000000000000000000000000000000000000000000000000000815260040161024090610e93565b60405180910390fd5b6000821161028c576040517f08c379a000000000000000000000000000000000000000000000000000000000815260040161028390610eff565b60405180910390fd5b600081116102cf576040517f08c379a00000000000000000000000000000000000000000000000000000000081526004016102c690610f91565b60405180910390fd5b6040518060800160405280858152602001848152602001838152602001828152506000803073ffffffffffffffffffffffffffffffffffffffff1673ffffffffffffffffffffffffffffffffffffffff168152602001908152602001600020600082015181600001908161034391906111bd565b50602082015181600101908161035991906111bd565b50604082015181600201556060820151816003015590505050505050565b60608060008060008060003073ffffffffffffffffffffffffffffffffffffffff1673ffffffffffffffffffffffffffffffffffffffff16815260200190815260200160002090508060000181600101826002015483600301548380546103dd90610fe0565b80601f016020809104026020016040519081016040528092919081815260200182805461040990610fe0565b80156104565780601f1061042b57610100808354040283529160200191610456565b820191906000526020600020905b81548152906001019060200180831161043957829003601f168201915b5050505050935082805461046990610fe0565b80601f016020809104026020016040519081016040528092919081815260200182805461049590610fe0565b80156104e25780601f106104b7576101008083540402835291602001916104e2565b820191906000526020600020905b8154815290600101906020018083116104c557829003601f168201915b5050505050925094509450945094505090919293565b600060205280600052604060002060009150905080600001805461051b90610fe0565b80601f016020809104026020016040519081016040528092919081815260200182805461054790610fe0565b80156105945780601f1061056957610100808354040283529160200191610594565b820191906000526020600020905b81548152906001019060200180831161057757829003601f168201915b5050505050908060010180546105a990610fe0565b80601f01602080910402602001604051908101604052809291908181526020018280546105d590610fe0565b80156106225780601f106105f757610100808354040283529160200191610622565b820191906000526020600020905b81548152906001019060200180831161060557829003601f168201915b5050505050908060020154908060030154905084565b600160009054906101000a900473ffffffffffffffffffffffffffffffffffffffff1681565b600066038d7ea4c680008261067391906112be565b9050919050565b600160009054906101000a900473ffffffffffffffffffffffffffffffffffffffff1673ffffffffffffffffffffffffffffffffffffffff163373ffffffffffffffffffffffffffffffffffffffff161461070a576040517f08c379a000000000000000000000000000000000000000000000000000000000815260040161070190611372565b60405180910390fd5b6000811161074d576040517f08c379a000000000000000000000000000000000000000000000000000000000815260040161074490610f91565b60405180910390fd5b806000803073ffffffffffffffffffffffffffffffffffffffff1673ffffffffffffffffffffffffffffffffffffffff168152602001908152602001600020600301600082825461079e9190611392565b9250508190555050565b6000803073ffffffffffffffffffffffffffffffffffffffff1673ffffffffffffffffffffffffffffffffffffffff16815260200190815260200160002060020154816107f591906112be565b3410156000803073ffffffffffffffffffffffffffffffffffffffff1673ffffffffffffffffffffffffffffffffffffffff168152602001908152602001600020600201546000803073ffffffffffffffffffffffffffffffffffffffff1673ffffffffffffffffffffffffffffffffffffffff16815260200190815260200160002060000160405160200161088c92919061150d565b604051602081830303815290604052906108dc576040517f08c379a00000000000000000000000000000000000000000000000000000000081526004016108d3919061154b565b60405180910390fd5b506000803073ffffffffffffffffffffffffffffffffffffffff1673ffffffffffffffffffffffffffffffffffffffff16815260200190815260200160002060030154811115610961576040517f08c379a0000000000000000000000000000000000000000000000000000000008152600401610958906115b9565b60405180910390fd5b806000803073ffffffffffffffffffffffffffffffffffffffff1673ffffffffffffffffffffffffffffffffffffffff16815260200190815260200160002060030160008282546109b291906115d9565b92505081905550806000803373ffffffffffffffffffffffffffffffffffffffff1673ffffffffffffffffffffffffffffffffffffffff1681526020019081526020016000206003016000828254610a0a9190611392565b9250508190555050565b6000604051905090565b600080fd5b600080fd5b600080fd5b600080fd5b6000601f19601f8301169050919050565b7f4e487b7100000000000000000000000000000000000000000000000000000000600052604160045260246000fd5b610a7b82610a32565b810181811067ffffffffffffffff82111715610a9a57610a99610a43565b5b80604052505050565b6000610aad610a14565b9050610ab98282610a72565b919050565b600067ffffffffffffffff821115610ad957610ad8610a43565b5b610ae282610a32565b9050602081019050919050565b82818337600083830152505050565b6000610b11610b0c84610abe565b610aa3565b905082815260208101848484011115610b2d57610b2c610a2d565b5b610b38848285610aef565b509392505050565b600082601f830112610b5557610b54610a28565b5b8135610b65848260208601610afe565b91505092915050565b6000819050919050565b610b8181610b6e565b8114610b8c57600080fd5b50565b600081359050610b9e81610b78565b92915050565b60008060008060808587031215610bbe57610bbd610a1e565b5b600085013567ffffffffffffffff811115610bdc57610bdb610a23565b5b610be887828801610b40565b945050602085013567ffffffffffffffff811115610c0957610c08610a23565b5b610c1587828801610b40565b9350506040610c2687828801610b8f565b9250506060610c3787828801610b8f565b91505092959194509250565b600081519050919050565b600082825260208201905092915050565b60005b83811015610c7d578082015181840152602081019050610c62565b60008484015250505050565b6000610c9482610c43565b610c9e8185610c4e565b9350610cae818560208601610c5f565b610cb781610a32565b840191505092915050565b610ccb81610b6e565b82525050565b60006080820190508181036000830152610ceb8187610c89565b90508181036020830152610cff8186610c89565b9050610d0e6040830185610cc2565b610d1b6060830184610cc2565b95945050505050565b600073ffffffffffffffffffffffffffffffffffffffff82169050919050565b6000610d4f82610d24565b9050919050565b610d5f81610d44565b8114610d6a57600080fd5b50565b600081359050610d7c81610d56565b92915050565b600060208284031215610d9857610d97610a1e565b5b6000610da684828501610d6d565b91505092915050565b610db881610d44565b82525050565b6000602082019050610dd36000830184610daf565b92915050565b600060208284031215610def57610dee610a1e565b5b6000610dfd84828501610b8f565b91505092915050565b6000602082019050610e1b6000830184610cc2565b92915050565b7f4f6e6c7920746865206f776e65722063616e20616464207468652070726f647560008201527f63742e0000000000000000000000000000000000000000000000000000000000602082015250565b6000610e7d602383610c4e565b9150610e8882610e21565b604082019050919050565b60006020820190508181036000830152610eac81610e70565b9050919050565b7f5072696365206d7573742062652067726561746572207468616e207a65726f2e600082015250565b6000610ee9602083610c4e565b9150610ef482610eb3565b602082019050919050565b60006020820190508181036000830152610f1881610edc565b9050919050565b7f5175616e74697479206d7573742062652067726561746572207468616e207a6560008201527f726f2e0000000000000000000000000000000000000000000000000000000000602082015250565b6000610f7b602383610c4e565b9150610f8682610f1f565b604082019050919050565b60006020820190508181036000830152610faa81610f6e565b9050919050565b7f4e487b7100000000000000000000000000000000000000000000000000000000600052602260045260246000fd5b60006002820490506001821680610ff857607f821691505b60208210810361100b5761100a610fb1565b5b50919050565b60008190508160005260206000209050919050565b60006020601f8301049050919050565b600082821b905092915050565b6000600883026110737fffffffffffffffffffffffffffffffffffffffffffffffffffffffffffffffff82611036565b61107d8683611036565b95508019841693508086168417925050509392505050565b6000819050919050565b60006110ba6110b56110b084610b6e565b611095565b610b6e565b9050919050565b6000819050919050565b6110d48361109f565b6110e86110e0826110c1565b848454611043565b825550505050565b600090565b6110fd6110f0565b6111088184846110cb565b505050565b5b8181101561112c576111216000826110f5565b60018101905061110e565b5050565b601f8211156111715761114281611011565b61114b84611026565b8101602085101561115a578190505b61116e61116685611026565b83018261110d565b50505b505050565b600082821c905092915050565b600061119460001984600802611176565b1980831691505092915050565b60006111ad8383611183565b9150826002028217905092915050565b6111c682610c43565b67ffffffffffffffff8111156111df576111de610a43565b5b6111e98254610fe0565b6111f4828285611130565b600060209050601f8311600181146112275760008415611215578287015190505b61121f85826111a1565b865550611287565b601f19841661123586611011565b60005b8281101561125d57848901518255600182019150602085019450602081019050611238565b8683101561127a5784890151611276601f891682611183565b8355505b6001600288020188555050505b505050505050565b7f4e487b7100000000000000000000000000000000000000000000000000000000600052601160045260246000fd5b60006112c982610b6e565b91506112d483610b6e565b92508282026112e281610b6e565b915082820484148315176112f9576112f861128f565b5b5092915050565b7f4f6e6c7920746865206f776e65722063616e20726573746f636b20746869732060008201527f70726f647563742e000000000000000000000000000000000000000000000000602082015250565b600061135c602883610c4e565b915061136782611300565b604082019050919050565b6000602082019050818103600083015261138b8161134f565b9050919050565b600061139d82610b6e565b91506113a883610b6e565b92508282019050808211156113c0576113bf61128f565b5b92915050565b600081905092915050565b7f596f75206d75737420706179206174206c656173742000000000000000000000600082015250565b60006114076016836113c6565b9150611412826113d1565b601682019050919050565b6000819050919050565b61143861143382610b6e565b61141d565b82525050565b7f2057656920706572200000000000000000000000000000000000000000000000600082015250565b60006114746009836113c6565b915061147f8261143e565b600982019050919050565b6000815461149781610fe0565b6114a181866113c6565b945060018216600081146114bc57600181146114d157611504565b60ff1983168652811515820286019350611504565b6114da85611011565b60005b838110156114fc578154818901526001820191506020810190506114dd565b838801955050505b50505092915050565b6000611518826113fa565b91506115248285611427565b60208201915061153382611467565b915061153f828461148a565b91508190509392505050565b600060208201905081810360008301526115658184610c89565b905092915050565b7f4e6f7420656e6f7567682070726f647563747320696e2073746f636b2e000000600082015250565b60006115a3601d83610c4e565b91506115ae8261156d565b602082019050919050565b600060208201905081810360008301526115d281611596565b9050919050565b60006115e482610b6e565b91506115ef83610b6e565b92508282039050818111156116075761160661128f565b5b9291505056fea26469706673582212205ee7f1a58dce9be7a58156a217399653b8cf34adcbba95dee6290b5bcb93021b64736f6c63430008130033",
  "immutableReferences": {},
  "source": "// SPDX-License-Identifier: MIT\r\npragma solidity >=0.8.2 <0.9.0;\r\n\r\ncontract Product {\r\n    \r\n    struct ProductInfo {\r\n        string name;\r\n        string description;\r\n        uint price;\r\n        uint quantity;\r\n    }\r\n    \r\n    mapping (address => ProductInfo) public products;\r\n    address public owner;\r\n\r\n    constructor(){\r\n        owner = msg.sender; \r\n        products[address(this)] = ProductInfo(\"Product\", \"No description\", 0, 0); \r\n    }\r\n    \r\n    function addProduct(string memory name, string memory description, uint price, uint quantity) public {\r\n        require(msg.sender == owner, \"Only the owner can add the product.\");\r\n        require(price > 0, \"Price must be greater than zero.\");\r\n        require(quantity > 0, \"Quantity must be greater than zero.\");\r\n        products[address(this)] = ProductInfo(name, description, price, quantity);\r\n    }\r\n    \r\n    function getProduct() public view returns (string memory, string memory, uint, uint) {\r\n        ProductInfo storage product = products[address(this)];\r\n        return (product.name, product.description, product.price, product.quantity);\r\n    }\r\n    \r\n    function convertToWei(uint amountInEth) public pure returns (uint) {\r\n        return amountInEth * 10**15;\r\n    }\r\n\r\n      function restock(uint amount) public {\r\n        require(msg.sender == owner, \"Only the owner can restock this product.\");   \r\n        require(amount > 0, \"Quantity must be greater than zero.\");\r\n        products[address(this)].quantity += amount;\r\n    }\r\n\r\n    function purchase(uint amount) public payable {\r\n        //payable - function which needs to receive ethers\r\n        require(msg.value >= amount * products[address(this)].price, string(abi.encodePacked(\"You must pay at least \", products[address(this)].price, \" Wei per \", products[address(this)].name)));\r\n        require(amount <= products[address(this)].quantity, \"Not enough products in stock.\");\r\n        products[address(this)].quantity -= amount;\r\n        products[msg.sender].quantity += amount; //purchaser account \r\n    }\r\n    \r\n}\r\n",
  "sourcePath": "C:\\Users\\Almina\\Desktop\\Diplomski\\smart_contracts\\contracts\\Product.sol",
  "compiler": {
    "name": "solc",
    "version": "0.8.19+commit.7dd6d404.Emscripten.clang"
  },
  "schemaVersion": "3.4.13",
  "updatedAt": "2023-03-28T21:57:34.149Z",
  "networkType": "ethereum",
  "devdoc": {
    "kind": "dev",
    "methods": {},
    "version": 1
  },
  "userdoc": {
    "kind": "user",
    "methods": {},
    "version": 1
  }
}