{
  "contractName": "Product",
  "abi": [
    {
      "inputs": [],
      "stateMutability": "nonpayable",
      "type": "constructor"
    },
    {
      "inputs": [],
      "name": "owner",
      "outputs": [
        {
          "internalType": "address",
          "name": "",
          "type": "address"
        }
      ],
      "stateMutability": "view",
      "type": "function",
      "constant": true
    },
    {
      "inputs": [
        {
          "internalType": "address",
          "name": "",
          "type": "address"
        }
      ],
      "name": "productBalances",
      "outputs": [
        {
          "internalType": "uint256",
          "name": "",
          "type": "uint256"
        }
      ],
      "stateMutability": "view",
      "type": "function",
      "constant": true
    },
    {
      "inputs": [],
      "name": "getVendingMachineBalance",
      "outputs": [
        {
          "internalType": "uint256",
          "name": "",
          "type": "uint256"
        }
      ],
      "stateMutability": "view",
      "type": "function",
      "constant": true
    },
    {
      "inputs": [
        {
          "internalType": "uint256",
          "name": "amount",
          "type": "uint256"
        }
      ],
      "name": "restock",
      "outputs": [],
      "stateMutability": "nonpayable",
      "type": "function"
    },
    {
      "inputs": [
        {
          "internalType": "uint256",
          "name": "amount",
          "type": "uint256"
        }
      ],
      "name": "purchase",
      "outputs": [],
      "stateMutability": "payable",
      "type": "function",
      "payable": true
    }
  ],
  "bytecode": "0x608060405234801561001057600080fd5b50336000806101000a81548173ffffffffffffffffffffffffffffffffffffffff021916908373ffffffffffffffffffffffffffffffffffffffff1602179055506064600160003073ffffffffffffffffffffffffffffffffffffffff1673ffffffffffffffffffffffffffffffffffffffff1681526020019081526020016000208190555061080d806100a56000396000f3fe60806040526004361061004a5760003560e01c8063726baf501461004f5780638da5cb5b1461008c578063c21a702a146100b7578063e7644d34146100e0578063efef39a11461010b575b600080fd5b34801561005b57600080fd5b5061007660048036038101906100719190610479565b610127565b60405161008391906104bf565b60405180910390f35b34801561009857600080fd5b506100a161013f565b6040516100ae91906104e9565b60405180910390f35b3480156100c357600080fd5b506100de60048036038101906100d99190610530565b610163565b005b3480156100ec57600080fd5b506100f561024a565b60405161010291906104bf565b60405180910390f35b61012560048036038101906101209190610530565b610291565b005b60016020528060005260406000206000915090505481565b60008054906101000a900473ffffffffffffffffffffffffffffffffffffffff1681565b60008054906101000a900473ffffffffffffffffffffffffffffffffffffffff1673ffffffffffffffffffffffffffffffffffffffff163373ffffffffffffffffffffffffffffffffffffffff16146101f1576040517f08c379a00000000000000000000000000000000000000000000000000000000081526004016101e8906105e0565b60405180910390fd5b80600160003073ffffffffffffffffffffffffffffffffffffffff1673ffffffffffffffffffffffffffffffffffffffff1681526020019081526020016000206000828254610240919061062f565b9250508190555050565b6000600160003073ffffffffffffffffffffffffffffffffffffffff1673ffffffffffffffffffffffffffffffffffffffff16815260200190815260200160002054905090565b6509184e72a000816102a39190610663565b3410156102e5576040517f08c379a00000000000000000000000000000000000000000000000000000000081526004016102dc90610717565b60405180910390fd5b600160003073ffffffffffffffffffffffffffffffffffffffff1673ffffffffffffffffffffffffffffffffffffffff16815260200190815260200160002054811115610367576040517f08c379a000000000000000000000000000000000000000000000000000000000815260040161035e90610783565b60405180910390fd5b80600160003073ffffffffffffffffffffffffffffffffffffffff1673ffffffffffffffffffffffffffffffffffffffff16815260200190815260200160002060008282546103b691906107a3565b9250508190555080600160003373ffffffffffffffffffffffffffffffffffffffff1673ffffffffffffffffffffffffffffffffffffffff168152602001908152602001600020600082825461040c919061062f565b9250508190555050565b600080fd5b600073ffffffffffffffffffffffffffffffffffffffff82169050919050565b60006104468261041b565b9050919050565b6104568161043b565b811461046157600080fd5b50565b6000813590506104738161044d565b92915050565b60006020828403121561048f5761048e610416565b5b600061049d84828501610464565b91505092915050565b6000819050919050565b6104b9816104a6565b82525050565b60006020820190506104d460008301846104b0565b92915050565b6104e38161043b565b82525050565b60006020820190506104fe60008301846104da565b92915050565b61050d816104a6565b811461051857600080fd5b50565b60008135905061052a81610504565b92915050565b60006020828403121561054657610545610416565b5b60006105548482850161051b565b91505092915050565b600082825260208201905092915050565b7f4f6e6c7920746865206f776e65722063616e20726573746f636b20746869732060008201527f6d616368696e652e000000000000000000000000000000000000000000000000602082015250565b60006105ca60288361055d565b91506105d58261056e565b604082019050919050565b600060208201905081810360008301526105f9816105bd565b9050919050565b7f4e487b7100000000000000000000000000000000000000000000000000000000600052601160045260246000fd5b600061063a826104a6565b9150610645836104a6565b925082820190508082111561065d5761065c610600565b5b92915050565b600061066e826104a6565b9150610679836104a6565b9250828202610687816104a6565b9150828204841483151761069e5761069d610600565b5b5092915050565b7f596f75206d75737420706179206174206c6561737420302e303030303120657460008201527f6865722070657220646f6e75742e000000000000000000000000000000000000602082015250565b6000610701602e8361055d565b915061070c826106a5565b604082019050919050565b60006020820190508181036000830152610730816106f4565b9050919050565b7f4e6f7420656e6f75676820646f6e75747320696e2073746f636b2e0000000000600082015250565b600061076d601b8361055d565b915061077882610737565b602082019050919050565b6000602082019050818103600083015261079c81610760565b9050919050565b60006107ae826104a6565b91506107b9836104a6565b92508282039050818111156107d1576107d0610600565b5b9291505056fea2646970667358221220aee3a70cadcb39f63b90c31a54c4e86fcc27740f486352c1460e28f13a641dee64736f6c63430008130033",
  "immutableReferences": {},
  "source": "// SPDX-License-Identifier: MIT\r\npragma solidity >=0.8.2 <0.9.0;\r\n\r\ncontract Product{\r\n    address public owner;    \r\n    mapping (address => uint) public productBalances;           \r\n\r\n    constructor(){\r\n        owner = msg.sender; \r\n        productBalances[address(this)] = 100; \r\n    }\r\n\r\n    function getVendingMachineBalance() public view returns (uint){\r\n        return productBalances[address(this)];\r\n    }\r\n\r\n    function restock(uint amount) public {\r\n        require(msg.sender == owner, \"Only the owner can restock this machine.\");   //You have to be an owner of this contract to increase amount of donuts on the blockchain.\r\n        productBalances[address(this)] += amount;\r\n    }\r\n\r\n    function purchase(uint amount) public payable {\r\n        //payable - function which needs to receive ether\r\n\r\n        require(msg.value >= amount * 0.00001 ether, \"You must pay at least 0.00001 ether per donut.\");    //2 ether is donut's price \r\n        require(amount <= productBalances[address(this)], \"Not enough donuts in stock.\");\r\n\r\n        productBalances[address(this)] -= amount;\r\n        productBalances[msg.sender] += amount; //purchaser account \r\n    }\r\n}",
  "sourcePath": "C:\\Users\\Almina\\Desktop\\Diplomski\\smart_contracts\\contracts\\Product.sol",
  "compiler": {
    "name": "solc",
    "version": "0.8.19+commit.7dd6d404.Emscripten.clang"
  },
  "schemaVersion": "3.4.13",
  "updatedAt": "2023-03-27T11:15:20.877Z",
  "networkType": "ethereum",
  "devdoc": {
    "kind": "dev",
    "methods": {},
    "version": 1
  },
  "userdoc": {
    "kind": "user",
    "methods": {},
    "version": 1
  }
}